{
  "_format": "hh-sol-artifact-1",
  "contractName": "MiniDex",
  "sourceName": "contracts/MiniDex.sol",
  "abi": [
    {
      "inputs": [
        {
          "internalType": "address",
          "name": "_tokenA",
          "type": "address"
        },
        {
          "internalType": "address",
          "name": "_tokenB",
          "type": "address"
        },
        {
          "internalType": "address",
          "name": "_initialOwner",
          "type": "address"
        }
      ],
      "stateMutability": "nonpayable",
      "type": "constructor"
    },
    {
      "inputs": [
        {
          "internalType": "address",
          "name": "owner",
          "type": "address"
        }
      ],
      "name": "OwnableInvalidOwner",
      "type": "error"
    },
    {
      "inputs": [
        {
          "internalType": "address",
          "name": "account",
          "type": "address"
        }
      ],
      "name": "OwnableUnauthorizedAccount",
      "type": "error"
    },
    {
      "anonymous": false,
      "inputs": [
        {
          "indexed": true,
          "internalType": "address",
          "name": "user",
          "type": "address"
        },
        {
          "indexed": false,
          "internalType": "uint256",
          "name": "amountA",
          "type": "uint256"
        },
        {
          "indexed": false,
          "internalType": "uint256",
          "name": "amountB",
          "type": "uint256"
        }
      ],
      "name": "LiquidityAdded",
      "type": "event"
    },
    {
      "anonymous": false,
      "inputs": [
        {
          "indexed": true,
          "internalType": "address",
          "name": "user",
          "type": "address"
        },
        {
          "indexed": false,
          "internalType": "uint256",
          "name": "amountA",
          "type": "uint256"
        },
        {
          "indexed": false,
          "internalType": "uint256",
          "name": "amountB",
          "type": "uint256"
        }
      ],
      "name": "LiquidityRemoved",
      "type": "event"
    },
    {
      "anonymous": false,
      "inputs": [
        {
          "indexed": true,
          "internalType": "address",
          "name": "previousOwner",
          "type": "address"
        },
        {
          "indexed": true,
          "internalType": "address",
          "name": "newOwner",
          "type": "address"
        }
      ],
      "name": "OwnershipTransferred",
      "type": "event"
    },
    {
      "anonymous": false,
      "inputs": [
        {
          "indexed": true,
          "internalType": "address",
          "name": "user",
          "type": "address"
        },
        {
          "indexed": false,
          "internalType": "address",
          "name": "tokenIn",
          "type": "address"
        },
        {
          "indexed": false,
          "internalType": "uint256",
          "name": "amountIn",
          "type": "uint256"
        },
        {
          "indexed": false,
          "internalType": "uint256",
          "name": "amountOut",
          "type": "uint256"
        }
      ],
      "name": "Swapped",
      "type": "event"
    },
    {
      "inputs": [
        {
          "internalType": "uint256",
          "name": "amountA",
          "type": "uint256"
        },
        {
          "internalType": "uint256",
          "name": "amountB",
          "type": "uint256"
        }
      ],
      "name": "addLiquidity",
      "outputs": [],
      "stateMutability": "nonpayable",
      "type": "function"
    },
    {
      "inputs": [
        {
          "internalType": "address",
          "name": "",
          "type": "address"
        }
      ],
      "name": "balanceOf",
      "outputs": [
        {
          "internalType": "uint256",
          "name": "",
          "type": "uint256"
        }
      ],
      "stateMutability": "view",
      "type": "function"
    },
    {
      "inputs": [],
      "name": "getReserveA",
      "outputs": [
        {
          "internalType": "uint256",
          "name": "",
          "type": "uint256"
        }
      ],
      "stateMutability": "view",
      "type": "function"
    },
    {
      "inputs": [],
      "name": "getReserveB",
      "outputs": [
        {
          "internalType": "uint256",
          "name": "",
          "type": "uint256"
        }
      ],
      "stateMutability": "view",
      "type": "function"
    },
    {
      "inputs": [],
      "name": "getTotalSupplyLP",
      "outputs": [
        {
          "internalType": "uint256",
          "name": "",
          "type": "uint256"
        }
      ],
      "stateMutability": "view",
      "type": "function"
    },
    {
      "inputs": [],
      "name": "owner",
      "outputs": [
        {
          "internalType": "address",
          "name": "",
          "type": "address"
        }
      ],
      "stateMutability": "view",
      "type": "function"
    },
    {
      "inputs": [
        {
          "internalType": "uint256",
          "name": "liquidity",
          "type": "uint256"
        }
      ],
      "name": "removeLiquidity",
      "outputs": [],
      "stateMutability": "nonpayable",
      "type": "function"
    },
    {
      "inputs": [],
      "name": "renounceOwnership",
      "outputs": [],
      "stateMutability": "nonpayable",
      "type": "function"
    },
    {
      "inputs": [],
      "name": "reserveA",
      "outputs": [
        {
          "internalType": "uint256",
          "name": "",
          "type": "uint256"
        }
      ],
      "stateMutability": "view",
      "type": "function"
    },
    {
      "inputs": [],
      "name": "reserveB",
      "outputs": [
        {
          "internalType": "uint256",
          "name": "",
          "type": "uint256"
        }
      ],
      "stateMutability": "view",
      "type": "function"
    },
    {
      "inputs": [
        {
          "internalType": "address",
          "name": "tokenIn",
          "type": "address"
        },
        {
          "internalType": "uint256",
          "name": "amountIn",
          "type": "uint256"
        }
      ],
      "name": "swap",
      "outputs": [],
      "stateMutability": "nonpayable",
      "type": "function"
    },
    {
      "inputs": [],
      "name": "tokenA",
      "outputs": [
        {
          "internalType": "contract IERC20",
          "name": "",
          "type": "address"
        }
      ],
      "stateMutability": "view",
      "type": "function"
    },
    {
      "inputs": [],
      "name": "tokenB",
      "outputs": [
        {
          "internalType": "contract IERC20",
          "name": "",
          "type": "address"
        }
      ],
      "stateMutability": "view",
      "type": "function"
    },
    {
      "inputs": [],
      "name": "totalSupplyLP",
      "outputs": [
        {
          "internalType": "uint256",
          "name": "",
          "type": "uint256"
        }
      ],
      "stateMutability": "view",
      "type": "function"
    },
    {
      "inputs": [
        {
          "internalType": "address",
          "name": "newOwner",
          "type": "address"
        }
      ],
      "name": "transferOwnership",
      "outputs": [],
      "stateMutability": "nonpayable",
      "type": "function"
    }
  ],
  "bytecode": "0x608060405234801561001057600080fd5b50604051611aa4380380611aa483398181016040528101906100329190610266565b80600073ffffffffffffffffffffffffffffffffffffffff168173ffffffffffffffffffffffffffffffffffffffff16036100a55760006040517f1e4fbdf700000000000000000000000000000000000000000000000000000000815260040161009c91906102c8565b60405180910390fd5b6100b48161013f60201b60201c565b5082600160006101000a81548173ffffffffffffffffffffffffffffffffffffffff021916908373ffffffffffffffffffffffffffffffffffffffff16021790555081600260006101000a81548173ffffffffffffffffffffffffffffffffffffffff021916908373ffffffffffffffffffffffffffffffffffffffff1602179055505050506102e3565b60008060009054906101000a900473ffffffffffffffffffffffffffffffffffffffff169050816000806101000a81548173ffffffffffffffffffffffffffffffffffffffff021916908373ffffffffffffffffffffffffffffffffffffffff1602179055508173ffffffffffffffffffffffffffffffffffffffff168173ffffffffffffffffffffffffffffffffffffffff167f8be0079c531659141344cd1fd0a4f28419497f9722a3daafe3b4186f6b6457e060405160405180910390a35050565b600080fd5b600073ffffffffffffffffffffffffffffffffffffffff82169050919050565b600061023382610208565b9050919050565b61024381610228565b811461024e57600080fd5b50565b6000815190506102608161023a565b92915050565b60008060006060848603121561027f5761027e610203565b5b600061028d86828701610251565b935050602061029e86828701610251565b92505060406102af86828701610251565b9150509250925092565b6102c281610228565b82525050565b60006020820190506102dd60008301846102b9565b92915050565b6117b2806102f26000396000f3fe608060405234801561001057600080fd5b50600436106100f55760003560e01c806374042d2c11610097578063d004f0f711610066578063d004f0f71461023e578063dc5fa6c51461025a578063edd78c9414610278578063f2fde38b14610296576100f5565b806374042d2c146101ca5780638da5cb5b146101e85780639c8f9f23146102065780639cd441da14610222576100f5565b80632de35003116100d35780632de35003146101545780635f64b55b1461017257806370a0823114610190578063715018a6146101c0576100f5565b806306cbda8f146100fa5780630fc63d101461011857806319e36f3b14610136575b600080fd5b6101026102b2565b60405161010f919061105d565b60405180910390f35b6101206102bc565b60405161012d91906110f7565b60405180910390f35b61013e6102e2565b60405161014b919061105d565b60405180910390f35b61015c6102e8565b604051610169919061105d565b60405180910390f35b61017a6102ee565b60405161018791906110f7565b60405180910390f35b6101aa60048036038101906101a59190611155565b610314565b6040516101b7919061105d565b60405180910390f35b6101c861032c565b005b6101d2610340565b6040516101df919061105d565b60405180910390f35b6101f061034a565b6040516101fd9190611191565b60405180910390f35b610220600480360381019061021b91906111d8565b610373565b005b61023c60048036038101906102379190611205565b6106ae565b005b61025860048036038101906102539190611245565b6109b2565b005b610262610e5b565b60405161026f919061105d565b60405180910390f35b610280610e61565b60405161028d919061105d565b60405180910390f35b6102b060048036038101906102ab9190611155565b610e6b565b005b6000600354905090565b600160009054906101000a900473ffffffffffffffffffffffffffffffffffffffff1681565b60055481565b60035481565b600260009054906101000a900473ffffffffffffffffffffffffffffffffffffffff1681565b60066020528060005260406000206000915090505481565b610334610ef1565b61033e6000610f78565b565b6000600454905090565b60008060009054906101000a900473ffffffffffffffffffffffffffffffffffffffff16905090565b600081116103b6576040517f08c379a00000000000000000000000000000000000000000000000000000000081526004016103ad906112e2565b60405180910390fd5b80600660003373ffffffffffffffffffffffffffffffffffffffff1673ffffffffffffffffffffffffffffffffffffffff168152602001908152602001600020541015610438576040517f08c379a000000000000000000000000000000000000000000000000000000000815260040161042f9061134e565b60405180910390fd5b60006003546004548361044b919061139d565b610455919061140e565b905060006003546005548461046a919061139d565b610474919061140e565b90508160046000828254610488919061143f565b9250508190555080600560008282546104a1919061143f565b9250508190555082600660003373ffffffffffffffffffffffffffffffffffffffff1673ffffffffffffffffffffffffffffffffffffffff16815260200190815260200160002060008282546104f7919061143f565b925050819055508260036000828254610510919061143f565b92505081905550600160009054906101000a900473ffffffffffffffffffffffffffffffffffffffff1673ffffffffffffffffffffffffffffffffffffffff1663a9059cbb33846040518363ffffffff1660e01b8152600401610574929190611473565b6020604051808303816000875af1158015610593573d6000803e3d6000fd5b505050506040513d601f19601f820116820180604052508101906105b791906114d4565b50600260009054906101000a900473ffffffffffffffffffffffffffffffffffffffff1673ffffffffffffffffffffffffffffffffffffffff1663a9059cbb33836040518363ffffffff1660e01b8152600401610615929190611473565b6020604051808303816000875af1158015610634573d6000803e3d6000fd5b505050506040513d601f19601f8201168201806040525081019061065891906114d4565b503373ffffffffffffffffffffffffffffffffffffffff167f96cd817c6329656790ef8fba7675405193677d39619571282f5e21f3a98cd05983836040516106a1929190611501565b60405180910390a2505050565b6000821180156106be5750600081115b6106fd576040517f08c379a00000000000000000000000000000000000000000000000000000000081526004016106f490611576565b60405180910390fd5b600160009054906101000a900473ffffffffffffffffffffffffffffffffffffffff1673ffffffffffffffffffffffffffffffffffffffff166323b872dd3330856040518463ffffffff1660e01b815260040161075c93929190611596565b6020604051808303816000875af115801561077b573d6000803e3d6000fd5b505050506040513d601f19601f8201168201806040525081019061079f91906114d4565b50600260009054906101000a900473ffffffffffffffffffffffffffffffffffffffff1673ffffffffffffffffffffffffffffffffffffffff166323b872dd3330846040518463ffffffff1660e01b81526004016107ff93929190611596565b6020604051808303816000875af115801561081e573d6000803e3d6000fd5b505050506040513d601f19601f8201168201806040525081019061084291906114d4565b50816004600082825461085591906115cd565b92505081905550806005600082825461086e91906115cd565b925050819055506000806003540361089357818361088c91906115cd565b90506108ee565b6000600454600354856108a6919061139d565b6108b0919061140e565b90506000600554600354856108c5919061139d565b6108cf919061140e565b9050600281836108df91906115cd565b6108e9919061140e565b925050505b806003600082825461090091906115cd565b9250508190555080600660003373ffffffffffffffffffffffffffffffffffffffff1673ffffffffffffffffffffffffffffffffffffffff168152602001908152602001600020600082825461095691906115cd565b925050819055503373ffffffffffffffffffffffffffffffffffffffff167fac1d76749e5447b7b16f5ab61447e1bd502f3bb4807af3b28e620d1700a6ee4584846040516109a5929190611501565b60405180910390a2505050565b600160009054906101000a900473ffffffffffffffffffffffffffffffffffffffff1673ffffffffffffffffffffffffffffffffffffffff168273ffffffffffffffffffffffffffffffffffffffff161480610a5b5750600260009054906101000a900473ffffffffffffffffffffffffffffffffffffffff1673ffffffffffffffffffffffffffffffffffffffff168273ffffffffffffffffffffffffffffffffffffffff16145b610a9a576040517f08c379a0000000000000000000000000000000000000000000000000000000008152600401610a919061164d565b60405180910390fd5b60008111610add576040517f08c379a0000000000000000000000000000000000000000000000000000000008152600401610ad4906116b9565b60405180910390fd5b6000600160009054906101000a900473ffffffffffffffffffffffffffffffffffffffff1673ffffffffffffffffffffffffffffffffffffffff168373ffffffffffffffffffffffffffffffffffffffff16149050600081610b6157600260009054906101000a900473ffffffffffffffffffffffffffffffffffffffff16610b85565b600160009054906101000a900473ffffffffffffffffffffffffffffffffffffffff165b9050600082610bb657600160009054906101000a900473ffffffffffffffffffffffffffffffffffffffff16610bda565b600260009054906101000a900473ffffffffffffffffffffffffffffffffffffffff165b9050600083610beb57600554610bef565b6004545b9050600084610c0057600454610c04565b6005545b90508373ffffffffffffffffffffffffffffffffffffffff166323b872dd3330896040518463ffffffff1660e01b8152600401610c4393929190611596565b6020604051808303816000875af1158015610c62573d6000803e3d6000fd5b505050506040513d601f19601f82011682018060405250810190610c8691906114d4565b5060006103e86103e588610c9a919061139d565b610ca4919061140e565b905060008184610cb491906115cd565b8284610cc0919061139d565b610cca919061140e565b905060008111610d0f576040517f08c379a0000000000000000000000000000000000000000000000000000000008152600401610d0690611725565b60405180910390fd5b8473ffffffffffffffffffffffffffffffffffffffff1663a9059cbb33836040518363ffffffff1660e01b8152600401610d4a929190611473565b6020604051808303816000875af1158015610d69573d6000803e3d6000fd5b505050506040513d601f19601f82011682018060405250810190610d8d91906114d4565b508615610dcb578760046000828254610da691906115cd565b925050819055508060056000828254610dbf919061143f565b92505081905550610dfe565b8760056000828254610ddd91906115cd565b925050819055508060046000828254610df6919061143f565b925050819055505b3373ffffffffffffffffffffffffffffffffffffffff167fa078c4190abe07940190effc1846be0ccf03ad6007bc9e93f9697d0b460befbb8a8a84604051610e4893929190611745565b60405180910390a2505050505050505050565b60045481565b6000600554905090565b610e73610ef1565b600073ffffffffffffffffffffffffffffffffffffffff168173ffffffffffffffffffffffffffffffffffffffff1603610ee55760006040517f1e4fbdf7000000000000000000000000000000000000000000000000000000008152600401610edc9190611191565b60405180910390fd5b610eee81610f78565b50565b610ef961103c565b73ffffffffffffffffffffffffffffffffffffffff16610f1761034a565b73ffffffffffffffffffffffffffffffffffffffff1614610f7657610f3a61103c565b6040517f118cdaa7000000000000000000000000000000000000000000000000000000008152600401610f6d9190611191565b60405180910390fd5b565b60008060009054906101000a900473ffffffffffffffffffffffffffffffffffffffff169050816000806101000a81548173ffffffffffffffffffffffffffffffffffffffff021916908373ffffffffffffffffffffffffffffffffffffffff1602179055508173ffffffffffffffffffffffffffffffffffffffff168173ffffffffffffffffffffffffffffffffffffffff167f8be0079c531659141344cd1fd0a4f28419497f9722a3daafe3b4186f6b6457e060405160405180910390a35050565b600033905090565b6000819050919050565b61105781611044565b82525050565b6000602082019050611072600083018461104e565b92915050565b600073ffffffffffffffffffffffffffffffffffffffff82169050919050565b6000819050919050565b60006110bd6110b86110b384611078565b611098565b611078565b9050919050565b60006110cf826110a2565b9050919050565b60006110e1826110c4565b9050919050565b6110f1816110d6565b82525050565b600060208201905061110c60008301846110e8565b92915050565b600080fd5b600061112282611078565b9050919050565b61113281611117565b811461113d57600080fd5b50565b60008135905061114f81611129565b92915050565b60006020828403121561116b5761116a611112565b5b600061117984828501611140565b91505092915050565b61118b81611117565b82525050565b60006020820190506111a66000830184611182565b92915050565b6111b581611044565b81146111c057600080fd5b50565b6000813590506111d2816111ac565b92915050565b6000602082840312156111ee576111ed611112565b5b60006111fc848285016111c3565b91505092915050565b6000806040838503121561121c5761121b611112565b5b600061122a858286016111c3565b925050602061123b858286016111c3565b9150509250929050565b6000806040838503121561125c5761125b611112565b5b600061126a85828601611140565b925050602061127b858286016111c3565b9150509250929050565b600082825260208201905092915050565b7f496e76616c6964206c697175696469747920616d6f756e740000000000000000600082015250565b60006112cc601883611285565b91506112d782611296565b602082019050919050565b600060208201905081810360008301526112fb816112bf565b9050919050565b7f496e73756666696369656e74206c697175696469747900000000000000000000600082015250565b6000611338601683611285565b915061134382611302565b602082019050919050565b600060208201905081810360008301526113678161132b565b9050919050565b7f4e487b7100000000000000000000000000000000000000000000000000000000600052601160045260246000fd5b60006113a882611044565b91506113b383611044565b92508282026113c181611044565b915082820484148315176113d8576113d761136e565b5b5092915050565b7f4e487b7100000000000000000000000000000000000000000000000000000000600052601260045260246000fd5b600061141982611044565b915061142483611044565b925082611434576114336113df565b5b828204905092915050565b600061144a82611044565b915061145583611044565b925082820390508181111561146d5761146c61136e565b5b92915050565b60006040820190506114886000830185611182565b611495602083018461104e565b9392505050565b60008115159050919050565b6114b18161149c565b81146114bc57600080fd5b50565b6000815190506114ce816114a8565b92915050565b6000602082840312156114ea576114e9611112565b5b60006114f8848285016114bf565b91505092915050565b6000604082019050611516600083018561104e565b611523602083018461104e565b9392505050565b7f496e76616c696420616d6f756e74730000000000000000000000000000000000600082015250565b6000611560600f83611285565b915061156b8261152a565b602082019050919050565b6000602082019050818103600083015261158f81611553565b9050919050565b60006060820190506115ab6000830186611182565b6115b86020830185611182565b6115c5604083018461104e565b949350505050565b60006115d882611044565b91506115e383611044565b92508282019050808211156115fb576115fa61136e565b5b92915050565b7f556e737570706f7274656420746f6b656e000000000000000000000000000000600082015250565b6000611637601183611285565b915061164282611601565b602082019050919050565b600060208201905081810360008301526116668161162a565b9050919050565b7f496e76616c696420616d6f756e74000000000000000000000000000000000000600082015250565b60006116a3600e83611285565b91506116ae8261166d565b602082019050919050565b600060208201905081810360008301526116d281611696565b9050919050565b7f496e73756666696369656e74206f757470757400000000000000000000000000600082015250565b600061170f601383611285565b915061171a826116d9565b602082019050919050565b6000602082019050818103600083015261173e81611702565b9050919050565b600060608201905061175a6000830186611182565b611767602083018561104e565b611774604083018461104e565b94935050505056fea26469706673582212208c5632a2c52366307e5ef925fce5e4a4f98ce3b7ad1af724a8e98c1630296e6464736f6c634300081c0033",
  "linkReferences": {},
  "deployedLinkReferences": {}
}